:100000000C940A040C94F3210C94CC210C94A5219B
:100010000C947E210C9432040C9432040C945721DD
:100020000C9432040C94E6200C94DC1C0C944B1DB4
:100030000C9432040C9432040C9432040C94320468
:100040000C9432040C9432040C9432040C94320458
:100050000C9432040C9432040C9432040C947D1FE2
:100060000C9432040C9432040C9432040C94320438
:100070000C9432040C9432040C9432040C94320428
:100080000C9432040C9432040C9432040C94320418
:100090000C94C71F0C9432040C9432040C94320458
:1000A0000C9432040C9432040C94320444656300C2
:1000B0004E6F76004F6374005365700041756700A2
:1000C0004A756C004A756E004D617900417072008E
:1000D0004D6172004665620000000000003E5B4F0B
:1000E0005B3E3E6B4F6B3E1C3E7C3E1C183C7E3C98
:1000F000181C577D571C1C5E7F5E1C00183C1800A6
:10010000FFE7C3E7FF0018241800FFE7DBE7FF3035
:10011000483A060E2629792926407F050507407FA3
:1001200005253F5A3CE73C5A7F3E1C1C08081C1C16
:100130003E7F14227F22145F5F005F5F06097F010C
:100140007F006689956A606060606094A2FFA294F7
:1001500008047E040810207E201008082A1C0808C5
:100160001C2A08081E101010100C1E0C1E0C303813
:100170003E3830060E3E0E06000000000000005F14
:1001800000000007000700147F147F14242A7F2A30
:1001900012231308646236495620500008070300F2
:1001A000001C2241000041221C002A1C7F1C2A083E
:1001B000083E0808008070300008080808080000A1
:1001C00060600020100804023E5149453E00427F15
:1001D000400072494949462141494D331814127F64
:1001E0001027454545393C4A494931412111090704
:1001F0003649494936464949291E00001400000085
:100200004034000000081422411414141414004156
:1002100022140802015909063E415D594E7C121113
:10022000127C7F494949363E414141227F4141414B
:100230003E7F494949417F090909013E41415173C6
:100240007F0808087F00417F41002040413F017F37
:10025000081422417F404040407F021C027F7F04FF
:1002600008107F3E4141413E7F090909063E415148
:10027000215E7F09192946264949493203017F0138
:10028000033F4040403F1F2040201F3F4038403F39
:10029000631408146303047804036159494D43004F
:1002A0007F4141410204081020004141417F040286
:1002B000010204404040404000030708002054541D
:1002C00078407F28444438384444442838444428FB
:1002D0007F385454541800087E090218A4A49C784E
:1002E0007F0804047800447D40002040403D007FAA
:1002F0001028440000417F40007C047804787C088A
:100300000404783844444438FC182424181824245D
:1003100018FC7C08040408485454542404043F4442
:10032000243C4040207C1C2040201C3C4030403C71
:1003300044281028444C9090907C4464544C4400D1
:100340000836410000007700000041360800020135
:100350000204023C2623263C1EA1A161123A404021
:10036000207A38545455592155557941225454789E
:1003700042215554784020545579400C1E52721237
:1003800039555555593954545459395554545800C0
:1003900000457C410002457D420001457C407D12C4
:1003A00011127DF0282528F07C5455450020545426
:1003B0007C547C0A097F4932494949323A444444D1
:1003C0003A324A4848303A4141217A3A424020780C
:1003D000009DA0A07D3D4242423D3D4040403D3C0D
:1003E00024FF2424487E4943662B2FFC2F2BFF0932
:1003F00029F620C0887E0903205454794100004426
:100400007D413048484A32384040227A007A0A0A10
:10041000727D0D19317D2629292F28262929292683
:1004200030484D4020380808080808080808382FC8
:1004300010C8ACBA2F102834FA00007B0000081452
:100440002A142222142A14085500550055AA55AA28
:1004500055AAFF55FF55FF000000FF00101010FFC8
:1004600000141414FF001010FF00FF1010F010F023
:10047000141414FC001414F700FF0000FF00FF1414
:1004800014F404FC141417101F10101F101F141460
:10049000141F00101010F0000000001F10101010AA
:1004A0001F10101010F010000000FF10101010109E
:1004B00010101010FF10000000FF140000FF00FFDC
:1004C00000001F10170000FC04F414141710171478
:1004D00014F404F40000FF00F7141414141414149A
:1004E000F700F7141414171410101F101F1414140D
:1004F000F4141010F010F000001F101F0000001F77
:1005000014000000FC140000F010F01010FF10FFA9
:10051000141414FF141010101F00000000F010FF3E
:10052000FFFFFFFFF0F0F0F0F0FFFFFF0000000022
:1005300000FFFF0F0F0F0F0F3844443844FC4A4AA6
:100540004A347E02020606027E027E02635549415B
:10055000633844443C04407E201E2006027E020292
:1005600099A5E7A5991C2A492A1C4C7201724C30A6
:100570004A4D4D303048784830BC625A463D3E497D
:100580004949007E0101017E2A2A2A2A2A44445F21
:10059000444440514A444040444A51400000FF0115
:1005A00003E080FF000008086B6B08361236243623
:1005B000060F090F06000018180000001010003088
:1005C00040FF0101001F01011E00191D1712003C10
:1005D0003C3C3C0000000000000103070F1F3F7F70
:1005E0000080C0E0F0F8FCFE0000000200090F00EF
:1005F00000030401000C00000000000000000000E7
:1006000000000000000000080B00020202000009C8
:10061000040000010202000005240010010524016D
:1006200001010424020605240600010705810310C8
:10063000004009040100020A000000070502024010
:1006400000000705830240000004030904120100B2
:1006500002EF020140412336800001010203014103
:10066000726475696E6F204C4C4300417264756909
:100670006E6F204C656F6E6172646F000706050433
:100680000100080A0B0C0D090000000024002700DF
:100690002A002D003000DB40A4A62EAF2000A1C808
:1006A000D300408DAED580A80000000025002800B2
:1006B0002B002E00310026206D6963313539006230
:1006C0007920306D696B65723000506F6E67204322
:1006D0006C6F636B0031373A33353A3432004E6F0A
:1006E0007620323520323032300000000000230006
:1006F000260029002C002F00020301000406070633
:1007000004050607060703010200040404040403A9
:1007100004050202020204030202020206060606A1
:1007200006060404020202040404080201104080C8
:1007300040102040804080080204018040201002C8
:1007400001108010204040204261636B0044696DBD
:10075000002A2000427269676874002A20004272F1
:10076000696768746E657373004A616E0042616305
:100770006B005365742044617465004261636B00D3
:10078000253032643A253032640053657420546950
:100790006D65003132687200323468720031322F78
:1007A00032346872206D6F6465004261636B005380
:1007B0006574204272696768746E6573730053656F
:1007C000742044617465005365742054696D65003C
:1007D0005365742031322F323468206D6F646500A8
:1007E00053657474696E6773002200FF2100253021
:1007F00032643A25303264256300253032643A256C
:10080000303264001F1C1F1E1F1E1F1F1E1F1E1FB5
:100810004D22CB2D11241FBECFEFDAE0DEBFCDBFBE
:1008200011E0A0E0B1E0E0EBF8E602C005900D9227
:10083000A239B107D9F723E0A2E9B1E001C01D92C6
:10084000A535B207E1F714E0C9E0D4E004C0219770
:10085000FE010E940033C830D107C9F70E949323DC
:100860000C944B340C940000089591E09093940202
:1008700080939302109292021092910208959091A7
:10088000900280918F022FEF3FEF981748F4E92FE5
:10089000F0E0E159FD4F208130E09F5F909390029E
:1008A000C90108959091900280918F022FEF3FEF40
:1008B000981748F4E92FF0E0E159FD4F208130E02E
:1008C0009F5F90939002C9010895FC0180913E02C0
:1008D000882311F13FB7F89482E08093E9002091DA
:1008E000F200822F90E01816190614F481E090E0CF
:1008F000882339F0289844E640933D024091F10066
:100900004083222339F02091F200211103C02BE60D
:100910002093E8003FBF08958FEF9FEF08952FB712
:10092000F89483E08093E9009091E800892F807229
:1009300095FF04C09091F20080E4891B2FBF0895B9
:100940008091350281110DC082E08093310284E0F4
:1009500080933202109234021092330281E080932D
:10096000350281E392E00895089508954091FD01D4
:100970005091FE012091FB013091FC014217530779
:10098000B4F49091E8009570E1F39091E80092FD45
:1009900019C08093F1008091FD019091FE010196B4
:1009A0008F739927892B19F48EEF8093E80080913B
:1009B000FD019091FE0101969093FE018093FD014F
:1009C00081E0089580E00895DF92EF92FF920F9307
:1009D0001F93CF93DF93D82E8A01EB017B01E40EA6
:1009E000F51ECE15DF0559F0D7FE12C0FE01849129
:1009F0000E94B60421968111F4CF0FEF1FEFC801BA
:100A0000DF91CF911F910F91FF90EF90DF900895AC
:100A10008881EECF0F931F93CF93DF931F92CDB7B3
:100A2000DEB782E0898342E450E067E076E080E868
:100A30000E94E4040E94A004DC0112960D911C9116
:100A40000115110589F0D801ED91FC910280F38127
:100A5000E02DBE016F5F7F4FC801099597FD04C06F
:100A6000F80100851185ECCF89810F90DF91CF913E
:100A70001F910F910895615030F02091F100FC0119
:100A800020830196F8CF289884E680933D0208954C
:100A9000AF92BF92CF92DF92EF92FF920F931F938C
:100AA000CF93DF936C017B018B01040F151FEB01CA
:100AB0005E01AE18BF08C017D10759F06991D60181
:100AC000ED91FC910190F081E02DC6010995892BF3
:100AD00079F7C501DF91CF911F910F91FF90EF90B2
:100AE000DF90CF90BF90AF900895CF93DF931F9288
:100AF000CDB7DEB76983DC01ED91FC910280F38113
:100B0000E02D41E050E0BE016F5F7F4F09950F90EF
:100B1000DF91CF91089583E08093E9008091F20006
:100B2000882319F08AE38093E80008950E948F04D7
:100B300090E00895CF93DF931F92CDB7DEB7FC010D
:100B40008485958597FD08C02FEF3FEF3587248773
:100B50000F90DF91CF910895CE0101960E94650418
:100B6000019719F4898190E0F3CF8FEF9FEFF0CFD9
:100B70000F931F93CF93DF931F92CDB7DEB78C01F6
:100B8000FC018485958597FF0BC0CE0101960E94DC
:100B90006504019771F4898190E0F8019587848755
:100BA000F801848595850F90DF91CF911F910F916A
:100BB00008958FEF9FEFF1CFFC018485958597FD18
:100BC0000BC09FB7F89482E08093E9008091F20017
:100BD0009FBF90E0019608959FB7F89482E08093BC
:100BE000E9008091F2009FBF90E0089581508F301E
:100BF00008F047C0E82FF0E0E050FA4F0C940033C3
:100C00001D0621060F061506190641064106410676
:100C100024062A062E063206380641063C06809136
:100C200080008F77809380000895809180008F7D71
:100C3000F9CF80918000877FF5CF84B58F7784BD11
:100C4000089584B58F7DFBCF809190008F7780933E
:100C500090000895809190008F7DF9CF8091900051
:100C6000877FF5CF8091C0008F778093C000089573
:100C70008091C0008F7DF9CF8091C200877F8093E3
:100C8000C2000895CF93DF93282F30E0F901E85197
:100C9000FA4F8491F901E75DF84FD491F901E65FCD
:100CA000F84FC491CC23A1F081110E94F605EC2FDE
:100CB000F0E0EE0FFF1FE651F94FA591B491EC91D2
:100CC000ED2381E090E009F480E0DF91CF91089579
:100CD00080E090E0FACF1F93CF93DF93282F30E08E
:100CE000F901E851FA4F8491F901E75DF84FD49189
:100CF000F901E65FF84FC491CC23A9F0162F8111BA
:100D00000E94F605EC2FF0E0EE0FFF1FE855F94FBB
:100D1000A591B4918FB7F894EC91111108C0D095BA
:100D2000DE23DC938FBFDF91CF911F910895DE2BDF
:100D3000F8CFCF93DF9390E0FC01E75DF84F24916B
:100D4000865F984FFC0184918823D1F090E0880F52
:100D5000991FFC01E857F94FA591B491FC01E855A2
:100D6000F94FC591D491623071F49FB7F8943C91DA
:100D7000822F809583238C93E8812E2B28839FBF1D
:100D8000DF91CF9108958FB7F894EC912E2B2C938F
:100D90008FBFF6CF3FB7F8948091F7019091F8019B
:100DA000A091F901B091FA0126B5A89B05C02F3F8B
:100DB00019F00196A11DB11D3FBFBA2FA92F982F81
:100DC0008827BC01CD01620F711D811D911D42E07C
:100DD000660F771F881F991F4A95D1F708958F9244
:100DE0009F92AF92BF92CF92DF92EF92FF924B0110
:100DF0005C010E94CA066B017C010E94CA066C1944
:100E00007D098E099F09683E734081059105A8F30D
:100E100021E0821A9108A108B10888EEC80E83E08B
:100E2000D81EE11CF11C81149104A104B10429F71E
:100E3000FF90EF90DF90CF90BF90AF909F908F90FA
:100E400008958F929F92AF92BF92CF92DF92EF92CE
:100E5000FF920F931F93CF93DF936C017B018A0165
:100E600080910B01882309F45CC080913E028823A5
:100E700009F457C08091010280FF05C08091E00015
:100E800082608093E000E801B12C8AEFA82E93E005
:100E9000892E2AE3922E209711F4BB20D9F10E94CB
:100EA0008F0481110AC0AA94AA20D9F161E070E0F0
:100EB00080E090E00E94EF06EECF8C171D0611F047
:100EC0000CF08C2F9FB7F8948092E9002091E800F5
:100ED00025FD02C09FBFDFCF282F30E0C21BD30B00
:100EE000F701815020F041914093F100FACFE20EDA
:100EF000F31EBB2021F09092E800B12CEBCF809143
:100F0000E80085FDE7CF9092E800BB24B3942097DA
:100F100009F3F3CF5D9884E6809300021016110662
:100F20003CF081E090E0F6019383828310E000E0E2
:100F3000C801DF91CF911F910F91FF90EF90DF904B
:100F4000CF90BF90AF909F908F900895EF92FF92B7
:100F50000F931F93CF93DF93EC01EC80FD806E1510
:100F60007F050CF070C057FF04C0240F351F50E000
:100F700040E08E819F81FA01E20FF31F8E179F07D9
:100F80001CF49C01241B350B121613060CF05BC0DD
:100F9000922F842F8695869586958E9DD0018F9D64
:100FA000B00D11246A0F7B1FAE8DBF8DA60FB71F2A
:100FB000477049F188E0841B482F682F70E0FB01DF
:100FC000E052FA4FE491281708F063C0621B7109E0
:100FD0002FEF30E002C0359527956A95E2F7E223BE
:100FE0000130110539F0B0F10230110561F58C9135
:100FF000E82702C08C91E82BEC93941720F12C8108
:101000003D81A20FB31FE92FE41BE83078F00230D6
:10101000110521F58E2F9C9190959C932C813D81FB
:10102000A20FB31F88508830B0F7E770EE2359F055
:10103000F0E0E852FA4FE49101301105F9F010F1B7
:101040000230110519F1DF91CF911F910F91FF909F
:10105000EF900895E0958C91E823CECF81E00115C3
:10106000110509F480E081959E2F8C932C813D81A0
:10107000A20FB31F98509830C0F7D7CF8C91E82BB0
:10108000EC93E1CFE0958C91E823FACF8C91E8279F
:10109000F7CF0130110509F4ADCFE0F202301105B0
:1010A00009F4A5CFAE0DBF1DAECF0F931F93CF9305
:1010B000DF9377FF04C0260F371F70E060E0DC018C
:1010C0001496CD91DC91FB01E20FF31FCE17DF07E1
:1010D0001CF49E01261B370B121613064CF5FA0161
:1010E00057FD3796A3E0F595E795AA95E1F7EC9FB4
:1010F000D001ED9FB00DFC9FB00D11246A0F7B1F36
:10110000DC015E96ED91FC91E60FF71F47705527C5
:1011100081E090E001C0880F4A95EAF7482F01303E
:10112000110559F0A8F02E0F3F1F02301105E1F014
:10113000DF91CF911F910F9108952E0F3F1FE2175E
:10114000F307B1F38191DF011197842B8C93F7CFD3
:1011500080952E0F3F1FE217F30751F39191DF01A6
:10116000119798239C93F7CFE217F30709F3819126
:10117000DF01119784278C93F7CF0F931F93FA0108
:10118000DC0155964C9155974230E9F04330A1F17E
:10119000413061F514964D915C91DA01AE1BBF0BA5
:1011A000FD01E21BF30B77FD0BC0DC0116964D91A0
:1011B0005C916417750724F4AB01BF010E945508C8
:1011C0001F910F91089514964D915C91DA01A61B21
:1011D000B70BBD0161507109DC0116964D915C9110
:1011E000DA01AE1BBF0BFD01E21BF30B77FDE8CF6D
:1011F000AF010E94A607E4CF16964D915C91DA01EB
:10120000A61BB70BBD0161507109CDCF0F931F9382
:10121000FA01DC0155964C9155974230A9F04330C4
:1012200091F1413019F514964D915C91DA01AE1BA4
:10123000BF0BFD013197F7FD04C0AB01BF010E9458
:10124000A6071F910F91089514964D915C91DA01B4
:10125000A61BB70BBD01DC0116964D915C91DA011E
:10126000AE1BBF0BFD013197621B730BF7FDE9CF7E
:10127000DC0116964D915C91E417F50714F7AF0168
:101280000E945508DECF16964D915C91DA01A61B9F
:10129000B70BBD01621B730BCECFFC0177FD64C0A1
:1012A00080859185681779070CF05EC057FD5CC09A
:1012B00082859385481759070CF056C0858982307E
:1012C000B1F0833029F1813041F484819581841B10
:1012D000950BAB01BC01615071092130310509F159
:1012E00008F443C02230310509F463C008958481B5
:1012F0009581DC01A61BB70BBD0161507109868188
:101300009781DC01A41BB50BAD0141505109E5CF1C
:1013100086819781861B970BBA01AC014150510918
:10132000DCCFCA0157FD0796A3E095958795AA954E
:10133000E1F7A481B5818A9F90018B9F300D9A9F20
:10134000300D1124620F731F068CF78DE02DE60F10
:10135000F71F4770552721E030E001C0220F4A9562
:10136000EAF78081822B80830895CA0157FD079692
:1013700033E0959587953A95E1F7A481B5818A9FE9
:1013800090018B9F300D9A9F300D1124620F731FB7
:10139000068CF78DE02DE60FF71F4770552781E08B
:1013A00090E001C0880F4A95EAF7809590818923E3
:1013B000DACFCA0157FD079623E0959587952A95C0
:1013C000E1F7A481B5818A9F90018B9F300D9A9F90
:1013D000300D1124620F731F068CF78DE02DE60F80
:1013E000F71F4770552721E030E001C0220F4A95D2
:1013F000EAF780818227B7CF8EBD00000DB407FECB
:10140000FDCF8EB5089508958CBD9DBD08950895B6
:10141000FC016370658B8481958126813781613001
:1014200039F0633029F091878087338722870895C8
:10143000318720879387828708952F923F924F921A
:101440005F926F927F928F929F92AF92BF92CF9254
:10145000DF92EF92FF920F931F93CF93DF93CDB75D
:10146000DEB769970FB6F894DEBF0FBECDBF998F78
:10147000888F5B011A01D22E1F830E833701C98228
:10148000DC0158962D913C9159972115310509F0B1
:1014900004C118968D919C911997681779070CF0E3
:1014A000C0C11A968D919C911B97481759070CF053
:1014B000B8C18C2C912CFB0126E0C29EE00DF11DE1
:1014C0001124F987E8871E161F060CF0AAC1A40193
:1014D00093E0440F551F9A95E1F75D874C87CA0149
:1014E000820D931D181619060CF09BC157968C910E
:1014F000811104C05FEA5D1508F4D394A88DB98DFD
:10150000ED91FC9111970284F385E02DCD010995B1
:10151000F5013596F98BE88BBB82AA82250188ED0F
:1015200090E08A199B099C0145E0D49E200D311D55
:1015300011243B8B2A8BEA89FB89E40DF51D24914C
:101540003D822C82D12CC12C622F70E07F876E8768
:10155000E88DF98DA081B18120FF7CC0F981F13047
:1015600009F069C01C96ED91FC912E813F81A1018B
:101570004C0D5D1DB201888D998D0995EE85FF8515
:10158000F595E7952E2F4FEFC41AD40A6C817D8113
:10159000680D791D7D836C8378E0C716D104A1F6B0
:1015A0008FEF481A580AAA81BB81A80DB91DBB83C9
:1015B000AA83E889F989E415F50509F0BCCF2E81E5
:1015C0003F8126153705A9F0A88DB98DED91FC91C5
:1015D000B981B13009F051C0B5016B5F7F4F008810
:1015E000F189E02D830128E030E0A101888D998DFB
:1015F0000995A88DB98DED91FC9111970688F78911
:10160000E02DCD0169960FB6F894DEBF0FBECDBFB9
:10161000DF91CF911F910F91FF90EF90DF90CF90CE
:10162000BF90AF909F908F907F906F905F904F9002
:101630003F902F9009941E96ED91FC91EE80FF80D3
:10164000840194014C815D816A817B81888D998DB3
:10165000099594CF2E813F812615370509F48ECF49
:101660003981313029F41C96ED91FC9193017FCFA3
:101670001E96ED91FC917301E3CF68857985681919
:1016800079090684F785E02D73010C851D85940189
:10169000A101888D998D0995ACCFF901349694916B
:1016A000329745915491D91AB7E0DB9E400D511DF8
:1016B0001124F90125913491398B288BFA01459039
:1016C0005490FA01329664903196C49032961491F7
:1016D000319604913981323008F48AC0E12E012E0E
:1016E000000CFF08402F002E000C550B598748872F
:1016F000A88DB98DED91FC9111970284F385E02DB1
:10170000CD010995B9818B2E912CE89CC001E99CF3
:10171000900DF89C900D1124FC01EA0DFB1DFF8734
:10172000EE871C82D12C712C9B868A869101200F1A
:10173000311D07FD3A953D8B2C8BA501410F511DA5
:1017400017FD5A955F8B4E8B7C1408F052CF872D76
:1017500090E048855985480F591F6A857B85469FCB
:101760009001479F300D569F300D1124D901A20DD5
:10177000B31DBD87AC87EE85FF85FB83EA83B12C63
:10178000A12C2C893D89280F391F3B8B2A8B8C81FA
:101790008A0DA61408F040C0877041F4C20101967A
:1017A000E889F989E40DF51DD4902C01D7FE15C008
:1017B000A88DB98DED91FC91B981B130F1F404841B
:1017C000F585E02D2E813F814A895B896E897F896D
:1017D0006A0D7B1D888D998D0995DD0CEFEFAE1A92
:1017E000BE0A2A813B81280D391D3B832A83CFCF36
:1017F00019861886F12CE12C7BCF0684F785E02D25
:10180000EE80FF80840194014C855D856A817B8137
:10181000888D998D0995E1CF3C81360D3C83739479
:1018200093CF69960FB6F894DEBF0FBECDBFDF91A0
:10183000CF911F910F91FF90EF90DF90CF90BF90CD
:10184000AF909F908F907F906F905F904F903F9060
:101850002F900895AF92BF92CF92EF92FF920F9385
:101860001F93CF93DF93EC01262F888D998D0097DE
:1018700009F04FC06A30C9F41D861C868C8998E037
:10188000899F900111248E859F85820F931F9F87CA
:101890008E8781E090E0DF91CF911F910F91FF90B3
:1018A000EF90CF90BF90AF9008956D3091F3CC88BA
:1018B0008E898823C1F08C859D85E6E0CE9E800DC3
:1018C000911D1124488559854817590764F44E85A0
:1018D0005F851D861C86F8E0CF9EC0011124840F11
:1018E000951F9F878E87EA88FB88088919894E850E
:1018F0005F856C857D85CE010E941D0A2C898C85B3
:101900009D8536E0239F800D911D11249D878C8736
:10191000C0CF6A3069F41D861C86FC013696E491BE
:101920002C898E859F85E29F800D911D1124AFCF5C
:101930006D3009F4AECFFC0134963491631708F48E
:10194000A8CF3196E491E61708F4A3CFFC013296B4
:1019500045915491E62FE31BFF0B37E03E9F50016A
:101960003F9FB00C1124A40EB51EF50132963491A0
:101970003196E4913323A1F1EE2391F1CC88F50166
:101980003596E4914E89442301F10E2E000CFF0B95
:10199000E30FF11DCE9EA001CF9E500D11246C854A
:1019A0007D85460F571F68857985641775076CF428
:1019B0004E855F851D861C860696FC018491C89E17
:1019C000400D511D11245F874E87EA88FB880889E6
:1019D00019894E855F856C857D85CE010E941D0A23
:1019E000F5013496E4912C898C859D85E29F800DCC
:1019F000911D11248BCFEF92FF920F931F93CF93E2
:101A0000DF938C017B01D0E0C0E0F701EC0FFD1FFC
:101A10006491662339F0C8010E942A0C892B11F0C9
:101A20002196F3CFCE01DF91CF911F910F91FF90BF
:101A3000EF9008956F927F928F929F92AF92BF9294
:101A4000CF92DF92EF92FF920F931F93CF93DF938A
:101A5000EC016B015A0139014801E881F9810284E6
:101A6000F385E02D0995E881F9810288F389E02D5D
:101A700087019301A501B601CE010995A501480D85
:101A8000591D41505109E881F9810288F389E02DFF
:101A90009301B601CE010995E881F9810088F189A9
:101AA000E02D9401A501B601CE010995C60CD71C05
:101AB000B60161507109E881F9810088F189E02D52
:101AC0009401A501CE010995E881F9810688F7897D
:101AD000E02DCE01DF91CF911F910F91FF90EF90FC
:101AE000DF90CF90BF90AF909F908F907F906F903E
:101AF00009946F927F928F929F92AF92BF92CF92F2
:101B0000DF92EF92FF920F931F93CF93DF935C01CD
:101B1000EB016A01490138018701DC01ED91FC917B
:101B20006217730719F5641675062CF0962D872D2C
:101B30003A01C92ED82E9601261937092F5F3F4F3B
:101B4000048CF58DE02DA301BE01C5010995DF913F
:101B5000CF911F910F91FF90EF90DF90CF90BF90AA
:101B6000AF909F908F907F906F9008954615570586
:101B700091F42617370724F0892D4B01C22FD82F57
:101B80009E01281939092F5F3F4F068CF78DE02DF4
:101B9000A601B401DACF0284F385E02D0995D501C1
:101BA000ED91FC910488F589E02D83019401A60153
:101BB000BE01C5010995D501ED91FC910688F78913
:101BC000E02DC501DF91CF911F910F91FF90EF9014
:101BD000DF90CF90BF90AF909F908F907F906F904D
:101BE0000994EF92FF920F931F93DC011A960D91C7
:101BF0001C911B9718962D913C911997ED91FC9192
:101C000000A0F1A1E02D7B0150E040E070E060E039
:101C100009951F910F91FF90EF9008954F925F9259
:101C20006F927F928F929F92AF92BF92CF92DF92EC
:101C3000EF92FF920F931F93CF93DF936C012B01D1
:101C40005A0139014801DC01ED91FC910284F385D0
:101C5000E02D0995E201640C751CD601ED91FC9113
:101C6000C615D7055CF40088F189E02D8701940141
:101C7000A501BE01C60109952196EFCF0688F78917
:101C8000E02DC601DF91CF911F910F91FF90EF9052
:101C9000DF90CF90BF90AF909F908F907F906F908C
:101CA0005F904F9009948F929F92AF92BF92CF9284
:101CB000DF92EF92FF920F931F93CF93DF93EC018C
:101CC0005B014A016901E881F9810284F385E02D15
:101CD000099595012C0D3D1D21503109E881F981AF
:101CE0000488F589E02D78018401A401B501CE01B5
:101CF0000995E881F9810688F789E02DCE01DF9109
:101D0000CF911F910F91FF90EF90DF90CF90BF90F8
:101D1000AF909F908F9009948F929F92AF92BF92B5
:101D2000CF92DF92EF92FF920F931F93CF93DF93A7
:101D3000EC015B014A0169017801E881F9810284C3
:101D4000F385E02D0995C80CD91C860101501109B5
:101D5000E881F9810488F589E02D9501A401B50198
:101D6000CE010995E881F9810688F789E02DCE0139
:101D7000DF91CF911F910F91FF90EF90DF90CF9067
:101D8000BF90AF909F908F900994EF92FF920F9326
:101D90001F93DC01ED91FC9100A0F1A1E02D0995CC
:101DA0001F910F91FF90EF9008950F931F93DC0107
:101DB000ED91FC91068CF78DE02D09951F910F9107
:101DC00008952F923F924F925F926F927F928F92DF
:101DD0009F92AF92BF92CF92DF92EF92FF920F93BA
:101DE0001F93CF93DF93CDB7DEB7AC970FB6F894C0
:101DF000DEBF0FBECDBF6B013A013CA72BA7580138
:101E0000261737070CF0ABC1E616F7060CF4BEC177
:101E1000621773075CF03C2D2D2DCBA4DCA43BA7EF
:101E20002CA7382F292FC301632E722ECE14DF0466
:101E3000D9F56816790654F0382F292F861597059D
:101E400014F4362D272D3C01832F922FA614B704AE
:101E50002CF08A159B050CF4C50153018A199B09C6
:101E60009C012F5F3F4F01E010E0A601B50186E025
:101E700093E00E94D50EAC960FB6F894DEBF0FBE6D
:101E8000CDBFDF91CF911F910F91FF90EF90DF9029
:101E9000CF90BF90AF909F908F907F906F905F900A
:101EA0004F903F902F9008953A2D2B2D5C01832F5A
:101EB000922F3E2D2F2D7601C32ED22E93012A195B
:101EC0003B094BA55CA54E195F09BC016A197B094A
:101ED0007E836D83D601AE19BF09BA87A987BC017D
:101EE000661977097E876D87C601ABA5BCA58A1BDD
:101EF0009B0B9E8B8D8BCA16DB0609F48DC0119748
:101F0000BA8FA98F4701212C312C2101198A1A8AF5
:101F10001B8A1C8ABA01550F880B990B6B8F7C8F1B
:101F20008D8F9E8F89859A85092E000CAA0BBB0B7D
:101F30008F8F98A3A9A3BAA3A901330F660B770BC0
:101F40004BA35CA36DA37EA36D817E81072E000C45
:101F5000880B990B6FA378A789A79AA7898D9A8D6B
:101F6000881599050CF45BC069897A898B899C89ED
:101F70002B8D3C8D4D8D5E8D0E944B31D501A20F76
:101F8000B31FBA83A983C201B1012F8D38A149A122
:101F90005AA10E944B312A0D3B1D49895A896B89F0
:101FA0007C898BA19CA1ADA1BEA1480F591F6A1FBE
:101FB0007B1F498B5A8B6B8B7C8B4FA158A569A5D6
:101FC0007AA5240E351E461E571E69817A81261772
:101FD000370734F499818A813A832983292F382F4E
:101FE00089819A81281B390B2F5F3F4F01E010E058
:101FF000A401BC0186E093E00E94D50E9FEF891AF0
:10200000990AACCF362D272D3C01832F922F3C2DE2
:102010002D2DCBA4DCA4C9C0DA8EC98E73CF940158
:10202000ABA5BCA52A1B3B0B4D855E85249FC0013B
:10203000259F900D349F900D11249C01990F440B06
:10204000550B29833A834B835C83C4018E199F0906
:102050004D815E81849F1001859F300C949F300CD0
:102060001124032C000C440855086D897E89072E25
:10207000000C880B990B6D8B7E8B8F8B988F8985CD
:102080009A85092E000CAA0BBB0B89879A87AB8710
:10209000BC872D853E85032E000C440B550B2D87E8
:1020A0003E874F87588B4D815E81052E000C660B55
:1020B000770B4D835E836F837887C814D9040CF443
:1020C000DACE69817A818B819C812D893E894F8905
:1020D000588D0E944B31B301620F731F7A8B698B4D
:1020E000C201B10129853A854B855C850E944B313F
:1020F0002A0D3B1D89819A81AB81BC814D855E850E
:102100006F857889840F951FA61FB71F89839A83CF
:10211000AB83BC836D817E818F819885260E371EAF
:10212000481E591E89899A892817390734F49989D4
:102130008A893A8B298B292F382FA989BA892A1B9A
:102140003B0B2F5F3F4F01E010E0A401BD0186E093
:1021500093E00E94D50EBFEF8B1A9B0AAECF2BA542
:102160003CA5E216F3060CF061CEE616F7060CF479
:1021700049CF2B2D5A013C01802F922F3BA52CA536
:102180007CA76BA76701E32EF22E45CE4BA55CA57D
:10219000E416F5060CF492CE3A2D2B2D5301632E46
:1021A000722E3E2D2F2DEBA4FCA43BA72CA786CE90
:1021B0000F931F93DC01ED91FC91048CF58DE02DC4
:1021C00009951F910F910895DC01ED91FC91008418
:1021D000F185E02D09949F92AF92BF92CF92DF924A
:1021E000EF92FF920F931F93CF93DF936C017B01CC
:1021F0005A0110E000E0912CD0E0C0E0CE018770E1
:102200009927990C892B59F4FE0183E0F595E79500
:102210008A95E1F7E00FF11FEA0DFB1D949097FE00
:102220000AC021E030E0A701B6016C0F7D1F86E0F7
:1022300093E00E94E4102196C038D105F9F68FEFA3
:10224000E81AF80A005F1F4F011582E01807A1F68F
:10225000DF91CF911F910F91FF90EF90DF90CF9082
:10226000BF90AF909F9008952F923F924F925F92B0
:102270006F927F928F929F92AF92BF92CF92DF9296
:10228000EF92FF920F931F93CF93DF9300D000D074
:1022900000D0CDB7DEB73C016A013E832D83FC82BE
:1022A000EB825801A41AB50AB7FE03C0B194A194F9
:1022B000B1088D809E80861A970A97FE03C091947C
:1022C000819491088A149B045CF0902F812F0D81DA
:1022D0001E819D838E839C2D8D2D6B01692F782F00
:1022E0000C151D055CF09D818E817E836D83692FA9
:1022F000782F902F812F8601C92ED82E1601201AF3
:10230000310A2B012D813E81421A530A57FE03C028
:10231000519441945108710137FE03C03FEFE31A15
:10232000F30AF594E7948D819E81861797075CF5F3
:10233000A1E0B0E0BA83A983C016D1064CF1D30165
:10234000ED91FC910484F585E02D2B813C81A80161
:102350006D817E818A149B041CF04D815E81B801E1
:10236000C3010995E418F508F7FE0AC02D813E81E6
:1023700089819A81280F391F3E832D83E20CF31C3B
:102380000F5F1F4FD9CF2FEF3FEF3A832983D4CF71
:1023900026960FB6F894DEBF0FBECDBFDF91CF916A
:1023A0001F910F91FF90EF90DF90CF90BF90AF9073
:1023B0009F908F907F906F905F904F903F902F9065
:1023C00008950895FC01908190539A3008F090E0B0
:1023D000818180532AE0929F800D112408952091DD
:1023E000D301260F3327331F21323105ECF420911E
:1023F0006902FC0190E080E0243069F082E00895F9
:10240000A091D3012191AC014D545E4FA40FB52F83
:10241000B11D2C930196861798F38091D301680F14
:102420006093D30180E0089581E008959B01AC01A1
:1024300060E074E284EF90E00E94B43120513109F1
:102440004109510956954795379527952093B8002E
:1024500008951092690281E08093680210926302ED
:1024600061E082E00E946B0661E083E00E946B06FF
:10247000E9EBF0E080818E7F808380818D7F808397
:1024800088E48093B80085E48093BC000895CF93DE
:10249000DF9391E09093B2018823B9F0C091B80026
:1024A000D091BA008091BC008A7B8093BC0060E030
:1024B00082E00E946B0660E083E00E946B060E944F
:1024C0002912D093BA00C093B800DF91CF9108953C
:1024D000E091900280918F02E81730F4F0E0E1592A
:1024E000FD4F808190E008958FEF9FEF08958091D8
:1024F0008F0290919002891B990B0895CF92DF92E1
:10250000EF92FF920F931F93CF93DF937C01CB0148
:102510008A0120919402222389F0EB016B01C40E01
:10252000D51ECC15DD0569F06991D701ED91FC91BF
:102530000190F081E02DC7010995F3CF642F0E942F
:10254000EF11C801DF91CF911F910F91FF90EF9094
:10255000DF90CF900895CF93DF931F92CDB7DEB772
:102560006983209194022223F9F020919102203274
:1025700058F021E030E0FC013383228390E080E0DA
:102580000F90DF91CF91089580919202E82FF0E0B3
:10259000EE56FE4F998190838F5F809392028093D5
:1025A000910281E090E0ECCF61E0CE0101960E94C3
:1025B000EF11F7CF60E085EE92E00C94AB12CF9272
:1025C000DF92EF92FF920F931F93CF93DF93D091FF
:1025D000910281E0D13208F09CC0C09193020E9428
:1025E000CA066B017C018091690281116CC082E096
:1025F0008093690281E0809368028FEF8093670285
:1026000010926602D0936502A2E9B1E0E3E4F2E041
:1026100080E0D8138DC01092640280916402CC0FC8
:10262000C82BC093640280916302813009F084C09A
:10263000109263020E94CA066B017C0180916402C1
:102640008093BB0080916B0290916C02A0916D020F
:10265000B0916E02892B8A2B8B2BA1F00E94CA06A7
:1026600000916B0210916C0220916D0230916E020C
:102670006C197D098E099F09061717072807390766
:1026800008F442C08091BC0083FDD8CF85EC8093D4
:10269000BC000E94CA066B017C01809169028230F5
:1026A00009F44CC0809167028F3F09F469C08091A2
:1026B0006702803209F466C080916702803309F4B2
:1026C00063C084E026C080916B0290916C02A0915F
:1026D0006D02B0916E02892B8A2B8B2B09F483CF6C
:1026E0000E94CA0600916B0210916C0220916D024B
:1026F00030916E026C197D098E099F090617170724
:102700002807390708F06FCF80916A020E944712AC
:1027100085E0109292021092910210929402DF9141
:10272000CF911F910F91FF90EF90DF90CF90089580
:102730009D9191938F5F6DCF85EEA9CF80916B02B4
:1027400090916C02A0916D02B0916E02892B8A2B40
:102750008B2B09F4A2CF0E94CA0600916B02109144
:102760006C0220916D0230916E026C197D098E0908
:102770009F09061717072807390708F08ECFC4CF1F
:1027800080E0C7CF82E0C5CF83E0C3CFFF920F9335
:102790001F93CF93DF93F82ED92FC62F809122035A
:1027A00090912303892B09F447C0809126030E944E
:1027B00035048091220390912303DC01ED91FC917B
:1027C0000190F081E02D60E009950F2D1D2FD1E0E3
:1027D000C1508091220390912303CF3F31F1D03239
:1027E00098F00E94DF12809126030E9435048091A8
:1027F000220390912303DC01ED91FC910190F08183
:10280000E02D60E00995D1E08091220390912303AF
:10281000F8016491DC01ED91FC910190F081E02DD3
:102820000995DF5F0F5F1F4FD3CFDF91CF911F91CE
:102830000F91FF900C94DF12E0913203F09133037B
:102840009081809138038095892380830F2D1D2FDF
:10285000C15008F438C0F8018491209120033091D0
:102860002103232B29F00E94FC090F5F1F4FF0CF9B
:1028700028E030E040E8E0912E03F0912F039091A2
:102880003603582F5423D9F05081952B9083E09133
:102890003003F0913103908150913703952B908351
:1028A000E0913003F091310350819091370390957E
:1028B00095239083469521503109E9F6D6CF508172
:1028C00090959523E3CFDF91CF911F910F91FF90CA
:1028D00008951F93CF93DF93EC018C8D9D8D892BF1
:1028E000F9F0162F88A10E9435048C8D9D8DDC0196
:1028F000ED91FC910190F081E02D60E009958C8DC7
:102900009D8DDC01ED91FC910190F081E02D612F16
:1029100009958C8D9D8DDF91CF911F910C94DF12C5
:10292000ACA5BDA59C918AA9809589238C938A8D9D
:102930009B8D892B31F0862FDF91CF911F910C94C5
:10294000FC0928E030E080E8A8A5B9A598A9462FA1
:102950004823C1F04C91942B9C93AAA5BBA59C91B4
:1029600049A9942B9C93AAA5BBA54C9199A9909594
:1029700094239C9386952150310931F7DF91CF91B3
:102980001F9108954C9190959423E6CFCF93C82F33
:102990008091220390912303892B41F160913A03A6
:1029A00070913B0380913C0390913D030E9416126D
:1029B00061E886E093E00E94691460914203C111CE
:1029C00060E086E093E00E94691480912203909178
:1029D0002303892B11F160913E0370913F03809195
:1029E000400390914103CF910C94161280912003E3
:1029F00090912103892B31F08091430390914403FE
:102A00000E94040AE0913403F09135039081809193
:102A10003903809589238083CBCFE0913403F091F3
:102A20003503808190913903892B8083CF9108955C
:102A3000CF93C82F8091220390912303892B01F11A
:102A400060913A0370913B0380913C0390913D0368
:102A50000E9416126C2F86E093E00E946914809108
:102A6000220390912303892B11F160913E03709111
:102A70003F038091400390914103CF910C94161233
:102A80008091200390912103892B31F080914303A1
:102A9000909144030E94040AE0913403F0913503BD
:102AA000908180913903809589238083D3CFE091F1
:102AB0003403F0913503808190913903892B808311
:102AC000CF9108958FEA0C941815FF920F931F93DE
:102AD000CF93DF938091220390912303892B09F4F4
:102AE00079C060913A0370913B0380913C039091CF
:102AF0003D030E94161265E089EE97E00E94C6131E
:102B000060910A03615086E093E00E94691420916D
:102B10000C0330910D03C901079697FD079623E03A
:102B2000959587952A95E1F720910A0330910B033B
:102B3000829F8001839F100D929F100D1124C091E0
:102B40002403D091250380912203909123030C0F3D
:102B50001D1F892B09F46DC0809126030E94350446
:102B60008091220390912303DC01ED91FC9101906F
:102B7000F081E02D60E40995FF24F3948091220315
:102B8000909123030C171D07E1F1BFE1BF15A0F4DD
:102B90000E94DF12809126030E9435048091220357
:102BA00090912303DC01ED91FC910190F081E02DE7
:102BB00060E40995FF24F39480912203909123030C
:102BC0006991DC01ED91FC910190F081E02D099576
:102BD000F394D4CF8091200390912103892B31F07D
:102BE00080914303909144030E94040AE0913403CE
:102BF000F0913503908180913903809589238083FA
:102C00007ACF0E94DF128091220390912303892BB7
:102C100009F450C060913E0370913F0380914003DE
:102C200090914103DF91CF911F910F91FF900C94F0
:102C30001612E0913203F0913303808190913803B2
:102C4000892B80830C171D07F1F2899120912003B5
:102C500030912103232B19F00E94FC09F3CF28E0C7
:102C600030E040E8E0912E03F0912F03909136037D
:102C7000582F5423D9F05081952B9083E091300345
:102C8000F0913103908150913703952B9083E0911F
:102C90003003F09131035081909137039095952343
:102CA0009083469521503109E9F6CCCF508190951B
:102CB0009523E3CFE0913403F09135038081909127
:102CC0003903892B8083DF91CF911F910F91FF9062
:102CD00008951F93CF93DF93EC01162F8C8D9D8D5C
:102CE000892BC9F06CA97DA98EA99FA90E941612F3
:102CF00066EA111167EACE010E9469148C8D9D8DE0
:102D0000892BC9F068AD79AD8AAD9BADDF91CF91CC
:102D10001F910C9416128A8D9B8D892B21F08DADFD
:102D20009EAD0E94040AEEA5FFA590818BA9809517
:102D300089238083DDCFEEA5FFA580819BA9892B08
:102D40008083DF91CF911F9108951F93CF93DF93DD
:102D5000EC0188E60E9435040E94DA122D811AE007
:102D6000822F612F0E94E032682F660F680F660F76
:102D7000620F85EE92E00E94AB122C81822F612FB0
:102D80000E94E032682F660F680F660F620F85EEB3
:102D900092E00E94AB122B81822F612F0E94E032C1
:102DA000682F660F680F660F620F85EE92E00E9433
:102DB000AB1260E085EE92E00E94AB122A81822F76
:102DC000612F0E94E032682F660F680F660F620F56
:102DD00085EE92E00E94AB122981822F612F0E9422
:102DE000E032682F660F680F660F620F85EE92E083
:102DF0000E94AB122881822F612F0E94E032682F3F
:102E0000660F680F660F620F85EE92E00E94AB12AC
:102E10000E94DA1285EE92E0DF91CF911F910C941F
:102E2000DF1290E080E00895EF92FF920F931F93DE
:102E3000FC01CB01058110E0248130E04281538107
:102E400060817181DC01ED91FC9100A0F1A1E02D88
:102E5000EE24E394F12C09951F910F91FF90EF90D0
:102E60000895FC0180819181892BE9F4942F991FA9
:102E70009927991F8581A82FB0E042815381911134
:102E800017C016828681A40FB51FA034B1056CF15E
:102E9000813059F516828681480F511D87FD5A955C
:102EA00053834283089591E0141624F390E0E2CF17
:102EB000222349F02CE330E02A1B3B0B6217130658
:102EC00081F07CF0681B8695840F952F911D70E032
:102ED00086179707B1F2681779072CF48FEF86836E
:102EE000D1CF680FF0CF81E0FACF141615069CF20F
:102EF0008F3F89F6CFCFFC01618F428F0895CF922B
:102F0000DF92EF92FF920F931F93CF93DF93EC0129
:102F1000F8948FB7F894C0903F02D0904002E090B0
:102F20004102F09042028FBF8881182F117080FDFE
:102F300034C089819A819601281B390B29373105C4
:102F400030F0888181608883DA82C98211E08881CB
:102F50008D7F88838881082F017080FF13C089814D
:102F60009A819601281B390B2937310558F08B813E
:102F70000E944206892B31F488818E7F8883DA8211
:102F8000C982102F7894812FDF91CF911F910F91DB
:102F9000FF90EF90DF90CF90089510E0D8CFFC0124
:102FA0006681248130E0161634F580E890E0AC01AB
:102FB000421B530B9A018781082E000C990B062E99
:102FC000000C770B0E94EC32629FC001639F900D52
:102FD000729F900D112422813381820F931F97FFDE
:102FE00003C09195819591099C012F73332786FD2C
:102FF00005C02087089520583109DDCF80E4821B69
:10300000808708958F929F92AF92BF92CF92DF9266
:10301000EF92FF920F931F93CF93DF937C01D62FF4
:103020000E94CA064B015C0180916902811167C050
:10303000CD2F81E080936902809368029FEF909387
:103040006702109266029D0F90936502809364025E
:1030500080916402EE0CFF1C8E29809364028091A3
:103060006302813009F083C0109263020E94CA0695
:103070006B017C01809164028093BB0080916B02A4
:1030800090916C02A0916D02B0916E02892B8A2BF7
:103090008B2BA1F00E94CA0680906B0290906C026C
:1030A000A0906D02B0906E026C197D098E099F0987
:1030B00086169706A806B90608F442C08091BC009F
:1030C00083FDD8CF85EC8093BC000E94CA066B01BB
:1030D0007C0180916902813009F44BC080916602C5
:1030E0008D1710F4C0916602E3E4F2E0AFE6B2E0BF
:1030F00080E08C1751F191919D938F5FFACF809171
:103100006B0290916C02A0916D02B0916E02892BBE
:103110008A2B8B2B09F488CF0E94CA0600916B0280
:1031200010916C0220916D0230916E02681979093C
:103130008A099B09061717072807390708F074CF73
:1031400080916A020E944712C0E010929002C093E0
:103150008F028C2FDF91CF911F910F91FF90EF90F5
:10316000DF90CF90BF90AF909F908F90089585EEA5
:10317000AACF80916B0290916C02A0916D02B091E8
:103180006E02892B8A2B8B2B09F4A3CF0E94CA06CF
:1031900080906B0290906C02A0906D02B0906E02D5
:1031A0006C197D098E099F0986169706A806B9062F
:1031B00008F08FCFC5CFEF92FF920F931F93CF935D
:1031C000DF932FB7F89480913F0290914002A09135
:1031D0004102B09142022FBF40910203509103037C
:1031E0006091040370910503841B950BA60BB70B2C
:1031F000893E9340A105B10578F4452B462B472B1A
:1032000059F01092F9021092F802DF91CF911F91BC
:103210000F91FF90EF900895E090F60288E60E94EB
:1032200035040E94DA1285EE92E00E94DF1267E018
:1032300070E088E690E00E9402180E9452048F77A6
:10324000282F30E094E0359527959A95E1F7922F55
:10325000990F990FC22FC91BCC0FC80F0E9452049F
:103260009C0144E0359527954A95E1F72F70332767
:10327000922F990F990FD22FD91BDD0FD80F0E94D3
:1032800052049C0154E0359527955A95E1F72F702B
:103290003327922F990F990F122F191B110F180F07
:1032A0000E9452040E9452049C0164E035952795C7
:1032B0006A95E1F72F703327922F990F990F022FFC
:1032C000091B000F080F0E9452049C0174E0359501
:1032D00027957A95E1F72F703327922F990F990F41
:1032E000F22EF91AFF0CF80E0E9452049C01E4E041
:1032F00035952795EA95E1F72F703327922F990F8F
:10330000990F291B220F820F8093F202F092F30291
:103310000093F4021093F502D093F602C093F702E3
:103320002FB7F89480913F0290914002A091410202
:10333000B09142022FBF8093020390930303A093A6
:103340000403B093050381E09091F6029E1101C041
:1033500080E08093F90281E08093F80262E070E0FF
:1033600089E490E00E9402180E945204C82F0E9433
:10337000520460E07C2F682B84E0759567958A95F0
:10338000E1F7072E000C880B990B0E94E73120E033
:1033900030E040E85DE30E9422326093FA027093CD
:1033A000FB028093FC029093FD022FCF63E490E038
:1033B00080E00E943D316091FE028091FF02811108
:1033C000626081E090E00E943D316091000382E004
:1033D00090E00E943D316091010383E090E00C9405
:1033E0003D3120910C0330910D03C901079697FDE3
:1033F000079623E0959587952A95E1F720910A0392
:1034000030910B03829FA001839F500D929F500D1E
:10341000112470E060E080912403909125030C94C6
:103420004434EF92FF920F931F93CF93DF93EC01FD
:103430008B8D882349F081508B8FDF91CF911F9125
:103440000F91FF90EF900895CE0102962A8D4217BA
:1034500019F021E0398D361320E0E42EF62E4E8946
:10346000688D0E94311721E0898D8F1101C020E005
:103470004E89688DCE0109960E9431178E01005F3A
:103480001F4F8E8928893989280F311D87FD3A956C
:10349000398B288B9F89EA89FB89E90FF11D97FDFC
:1034A000FA95FB8BEA8B87FF1AC09E819217130651
:1034B0000CF477C06C817D81E617F7070CF471C0BE
:1034C0004F81460F572F511D4E175F070CF469C0EF
:1034D00081958E8BC8010E94CF1780E022C06C8935
:1034E00070E08823D1F3620F731F9D8540E850E0A0
:1034F000491B51096417750784F0AB85BC856D893C
:103500006E0F7F2F711D6A177B073CF04E854A0FA7
:103510005B2F511D4E175F07DCF681E02038310527
:10352000E4F24A895B899C8920E430E0291B310957
:103530002417350714F057FF03C09F8991959F8B7F
:10354000882309F47ACFF98EEA8E8F8120E430E067
:103550007901E81AF10860E070E0CB011E141F0445
:1035600044F40E94262E9701FF0C440B550B0E9439
:103570004B317D836C832E8130E0398B288B2F81FA
:10358000269530E0C901860F971F9B8B8A8B8E8909
:1035900087FF02C081958E8BC8010E94CF1782E3FE
:1035A0004BCF8C89280F311D832F881F8827881FB8
:1035B000B8CF0E943F34FB0101900020E9F731971A
:1035C000AF01461B570BDC01ED91FC910280F381AA
:1035D000E02D09948F929F92AF92BF92EF92FF924B
:1035E0000F931F93CF93DF93CDB7DEB7A1970FB69D
:1035F000F894DEBF0FBECDBF7C01FA01CB0119A24A
:10360000223008F42AE08E010F5D1F4F822E912C8C
:10361000B12CA12CBF01A50194010E94B431F90184
:10362000CA016A300CF5605DD8016E938D01232BC1
:10363000242B252B79F790E080E0109721F0BD0135
:10364000C7010E94DB1AA1960FB6F894DEBF0FBE29
:10365000CDBFDF91CF911F910F91FF90EF90BF9061
:10366000AF909F908F900895695CDECFCF92DF92EC
:10367000EF92FF920F931F93CF93DF93CDB7DEB7F7
:1036800028970FB6F894DEBF0FBECDBF6C01EE24B5
:10369000E394F12C00E410E020E830E050E040E05A
:1036A00070E060E086E093E00E941A0D81E090E017
:1036B0009093190380931803909317038093160334
:1036C00080931A0382E090E0909313038093120397
:1036D0009093150380931403B60186E093E00E9453
:1036E000FB0C26E0289F6001299FD00C112482E06A
:1036F000C80ED11C01E010E096014AE050E070E0F5
:1037000060E086E093E00E9406092AE030E050E0A5
:1037100040E0B60186E093E00E94BD088091FE0281
:10372000882309F46FC08FE1C82ED12C96012E5F3B
:103730003F4F6EE770E06C197D09EE24E394F12CA5
:103740000AE010E050E040E086E093E00E940E0EB8
:1037500096012F5F3F4F6FE770E06C197D0901E024
:1037600010E04AE050E086E093E00E9406091092E3
:1037700017031092160381E090E090931903809351
:10378000180380E890E08C199D094091FE02309169
:10379000F6022091F5028E010F5F1F4F90931303E5
:1037A0008093120382E090E09093150380931403BA
:1037B000442351F11F923F931F922F938AEF97E07A
:1037C0009F938F931F9287E08F931F930F930E9475
:1037D000872E0FB6F894DEBF0FBECDBFB80186E0CE
:1037E00093E00E94DB1A28960FB6F894DEBF0FBE56
:1037F000CDBFDF91CF911F910F91FF90EF90DF90A0
:10380000CF90089585E290CF822F6CE00E94E03245
:10381000911101C09CE080E52C3008F481E41F92F6
:103820008F931F923F931F929F938EEE97E09F93EB
:103830008F931F9287E08F931F930F930E94872E81
:10384000C8CFBF92CF92DF92EF92FF920F931F9358
:10385000CF93DF936C01EB0102960E941417BE0117
:10386000C60109960E941417F601828D8170B82E48
:10387000F4E0BF9EA0011124E881F98100A0F1A12C
:10388000E02DEE24E394F12C04E010E022E030E09F
:103890006FE370E0CE010995B394B3948FE08B157C
:1038A00038F7F601418D8CE290E04A3010F08EE15D
:1038B00090E022E02C8B21E030E03B8B2A8B398B8F
:1038C000288B9D878C8702E010E01F870E8750E0D1
:1038D00070E060E02AE0CE010E94EA1A6FE871E031
:1038E000CE010E94DB1A8AE490E09D878C871F87B7
:1038F0000E87F601428D50E070E060E02AE0CE01D4
:103900000E94EA1A6FE871E0CE010E94DB1AF6010C
:10391000058910E0248930E04289538960897189E2
:10392000E881F98100A0F1A1E02DEE24E394F12CCF
:10393000CE010995DF91CF911F910F91FF90EF90EC
:10394000DF90CF90BF90089585ED8093BC0080916B
:103950006B0290916C02A0916D02B0916E0207967D
:10396000A11DB11D23E0B695A795979587952A953A
:10397000D1F72091BC0024FD03C010926902089584
:1039800040916B0250916C0260916D0270916E02D9
:10399000452B462B472B69F30097A105B10541F054
:1039A00025E32A95F1F700000197A109B109E1CFBC
:1039B00080916A020C9447121F920F920FB60F92D9
:1039C00011248F939F938091E1009091E100937F68
:1039D0009093E10083FF0FC01092E90091E0909373
:1039E000EB001092EC0092E39093ED0010923E02F7
:1039F00098E09093F00082FF22C093E09093E9005A
:103A00009091F200992319F09AE39093E800909135
:103A10000002992341F0909100029150909300028E
:103A2000911101C05D9A90913D02992341F09091CE
:103A30003D02915090933D02911101C0289A84FF5C
:103A400018C08091E2008E7E81608093E2008091B8
:103A5000E1008F7E8093E100809101028E7E806183
:103A6000809301029F918F910F900FBE0F901F9036
:103A7000189580FFF7CF8091E2008E7E8061809361
:103A8000E2008091E1008E7E8093E100809101024E
:103A90008E7E8160E5CF1F920F920FB60F92112498
:103AA000CF92DF92EF92FF920F931F932F933F934A
:103AB0004F935F936F937F938F939F93AF93BF9336
:103AC000EF93FF93CF93DF93CDB7DEB76C97DEBF55
:103AD000CDBF1092E9008091E80083FF25C068E027
:103AE000CE0145960E943B0582EF8093E8008D89C8
:103AF00087FF39C09091E80090FFFCCF982F907617
:103B000009F034C19E894F89588D2F89F88C911105
:103B100031C0803861F5809102028093F1001092EB
:103B2000F1008EEF8093E8006C960FB6F894DEBF3C
:103B30000FBECDBFDF91CF91FF91EF91BF91AF91BC
:103B40009F918F917F916F915F914F913F912F91B5
:103B50001F910F91FF90EF90DF90CF900F900FBECD
:103B60000F901F9018959EEF9093E800C7CF10928A
:103B7000F100D5CF913059F48111D3CF41305105A7
:103B800081F6809102028D7F80930202CACF93302A
:103B900049F48111C6CF4130510519F680910202D6
:103BA0008260F2CF953041F48091E80080FFFCCF35
:103BB00020682093E300B5CF963009F0A9C00B8DA3
:103BC0001C8D22E01092E9001092FE011092FD017E
:103BD000F2122EC01092FC011092FB010E940A0505
:103BE0001F8299E09983FA8291E09E8390EA9887F8
:103BF0009AEF99872091FD013091FE01275F3F4F99
:103C00003C832B838D831092E9001092FE01109269
:103C1000FD011093FC010093FB0149E050E0BE015F
:103C20006F5F7F4F80E00E94E4040E940A0579CF15
:103C30001093FC010093FB010E94A004DC0112968A
:103C40000D911C910115110509F451C1D801ED9197
:103C5000FC910480F581E02DBE016B5E7F4FC801B1
:103C60000995009709F03EC1F80100851185EACF5A
:103C7000F3E0FF120EC08F89882309F440C0823020
:103C800061F440E860E18BE696E00E941A2281111F
:103C900048CF81E28093EB0047CF813029F440E8A0
:103CA0006BE08FE596E0F1CF833099F70E94A00496
:103CB000DC011296ED90FC908E010F5F1F4F6801A2
:103CC000E114F10479F0D701ED91FC910680F781C0
:103CD000E02DB801C7010995080F111DF701E08417
:103CE000F184EECFD8011C92F60101900020E9F793
:103CF0003197BF016C197D0940E0C601C6CF69E468
:103D000076E0FB01449150E080E80E94E40409CF92
:103D1000973009F4BECF983021F481E08093F10010
:103D200000CF993009F0FDCE837009F0B2CFE9E100
:103D3000F1E081E031E096E32191222371F080935C
:103D4000E9003093EB00DF0111972C912093EC00F8
:103D50009093ED008F5F873079F78EE78093EA00CC
:103D60001092EA008F8980933E02DBCE8B8D9C8D72
:103D70001092E9001092FE011092FD019093FC0157
:103D80008093FB01898D811192C08E899D89913A22
:103D900049F4813209F07DCF47E050E064E071E002
:103DA00080E0B3CF913209F074CF833269F48F8908
:103DB000988DB0E0A0E08093000190930101A09362
:103DC0000201B0930301ADCE803269F48091E80026
:103DD00082FFFCCF67E084E091E00E943B058BEF1F
:103DE0008093E8009ECE823209F09BCE8F8980932B
:103DF0000B01EEEFFFE7859194918B3F9C4D51F1C4
:103E0000E0E0F8E08091040190910501A0910601A5
:103E1000B0910701803B9440A105B105F1F4809178
:103E20000B0180FD1AC0EE3F8AE0F80789F587E7AD
:103E300097E791838083809160008093FF0188E100
:103E40009BE00FB6F894A895809360000FBE909306
:103E5000600067CEEEEFFAE0D5CF808191818737A1
:103E6000974709F05ECEA8958091600088618093A5
:103E700060008091FF0180936000EE3F2AE0F2072E
:103E800089F08091FE0A9091FF0A9183808349CE48
:103E9000808191818737980751F29093FF0A809330
:103EA000FE0AC5CF1092FF0A1092FE0A3ACE0E9477
:103EB000A004DC0112960D911C910115110509F465
:103EC000E8CED801ED91FC910190F081E02DBE018A
:103ED0006B5E7F4FC8010995811123CEF8010085E3
:103EE0001185EBCF181619060CF41BCED2CEF1E0DB
:103EF000FF12BECE6DE476E004CF1F920F920FB694
:103F00000F9211242F933F938F939F93AF93BF935F
:103F100080913F0290914002A0914102B0914202F3
:103F20003091F60123E0230F2D3758F50196A11D9E
:103F3000B11D2093F60180933F0290934002A0931D
:103F40004102B09342028091F7019091F801A09153
:103F5000F901B091FA010196A11DB11D8093F701FD
:103F60009093F801A093F901B093FA01BF91AF913A
:103F70009F918F913F912F910F900FBE0F901F90A7
:103F8000189526E8230F0296A11DB11DD2CF1F92CE
:103F90000F920FB60F9211242F933F934F935F937D
:103FA0006F937F938F939F93AF93BF93EF93FF9301
:103FB0008091B900887F803609F44AC0F0F58832D4
:103FC00009F4A7C018F5803109F49BC0B8F4882320
:103FD00009F4F9C0883009F494C0FF91EF91BF91C2
:103FE000AF919F918F917F916F915F914F913F9191
:103FF0002F910F900FBE0F901F901895883109F4E4
:1040000088C0803251F78093670214C0803409F46D
:104010009DC040F48033B9F38833F9F6809367028A
:1040200085ECB0C0803509F485C0883509F496C0A8
:10403000883499F60E94A41CD0CF883909F48CC02A
:1040400038F5883729F050F4883611F0803729F692
:1040500083E0809369021092F50157C0883809F413
:104060007BC0803919F0803809F0B7CF8091F50115
:10407000803208F071C0E091F50181E08E0F8093ED
:10408000F5018091BB00F0E0EB52FE4F80833DC014
:10409000803B39F0E0F4803A09F479C0883A09F0BD
:1040A0009CCF84E0809369021092D4011092D301D6
:1040B000E0910602F091070209958091D3018111E8
:1040C0000FC081E08093D3011092B30109C0803CFE
:1040D00009F4A6CF883C09F4A3CF883B09F07DCF33
:1040E000E091D40181E08E0F8093D401F0E0ED5493
:1040F000FE4F80818093BB009091D4018091D301C9
:1041000029C0809164028093BB0085EC8093BC0041
:1041100064CF9091660280916502981758F5E091FE
:10412000660281E08E0F80936602F0E0ED5BFD4F4A
:104130008081E9CFE091660281E08E0F8093660274
:104140008091BB00F0E0ED5BFD4F808390916602B3
:10415000809165029817C8F285E8D8CFE091660291
:1041600081E08E0F809366028091BB00F0E0ED5BF2
:10417000FD4F80838091680281115CCF81E0809344
:10418000630284EA8093BC001092690226CF85EC1A
:104190008093BC00109269028091F501803230F466
:1041A000E091F501F0E0EB52FE4F10826091F501D5
:1041B00070E0E0910402F091050285ED91E009952F
:1041C0001092F5010ACF1092670234CF1F920F921E
:1041D0000FB60F9211242F933F934F935F936F93DA
:1041E0007F938F939F93AF93BF93CF93EF93FF935F
:1041F00093B1C09114028091260230912502292F9B
:10420000209523238923822B20916B00C927C22369
:10421000C82390931402CC23C1F1C0FF05C0E091E4
:104220001502F09116020995C1FF05C0E091170231
:10423000F09118020995C2FF05C0E0911902F091B2
:104240001A020995C3FF05C0E0911B02F0911C0200
:104250000995C4FF05C0E0911D02F0911E02099569
:10426000C5FF05C0E0911F02F09120020995C6FF2D
:1042700005C0E0912102F09122020995C7FF05C017
:10428000E0912302F09124020995FF91EF91CF91E3
:10429000BF91AF919F918F917F916F915F914F915E
:1042A0003F912F910F900FBE0F901F9018951F9266
:1042B0000F920FB60F9211242F933F934F935F935A
:1042C0006F937F938F939F93AF93BF93EF93FF93DE
:1042D000E0911002F09111020995FF91EF91BF91C9
:1042E000AF919F918F917F916F915F914F913F918E
:1042F0002F910F900FBE0F901F9018951F920F9245
:104300000FB60F9211242F933F934F935F936F93A8
:104310007F938F939F93AF93BF93EF93FF93E0911E
:104320000E02F0910F020995FF91EF91BF91AF91AD
:104330009F918F917F916F915F914F913F912F91BD
:104340000F900FBE0F901F9018951F920F920FB6EF
:104350000F9211242F933F934F935F936F937F930B
:104360008F939F93AF93BF93EF93FF93E0910C02D2
:10437000F0910D020995FF91EF91BF91AF919F913F
:104380008F917F916F915F914F913F912F910F90FE
:104390000FBE0F901F9018951F920F920FB60F929D
:1043A00011242F933F934F935F936F937F938F933A
:1043B0009F93AF93BF93EF93FF93E0910A02F09125
:1043C0000B020995FF91EF91BF91AF919F918F9152
:1043D0007F916F915F914F913F912F910F900FBE01
:1043E0000F901F9018951F920F920FB60F921124E5
:1043F0002F933F934F935F936F937F938F939F93ED
:10440000AF93BF93EF93FF93E0910802F0910902FD
:104410000995FF91EF91BF91AF919F918F917F91FE
:104420006F915F914F913F912F910F900FBE0F9021
:104430001F901895EF92FF920F931F93CF93DF93E6
:10444000F82E192FE62E042F81E0860F880F0E9488
:10445000B60483E00E94B604CF2DD12FEC0EFD2EC2
:10446000F11CCE15DF05B9F007FF13C0FE018491E2
:104470000E94B604182F80E00E94B6048123219682
:104480008111EFCFDF91CF911F910F91FF90EF90AE
:1044900008958881EDCF81E0F5CFCF9310929802F7
:1044A0001092970288EE93E0A0E0B0E0809399022A
:1044B00090939A02A0939B02B0939C0223E431E074
:1044C00030939602209395022FEF3FEF3093A20294
:1044D0002093A1021092E8021092E7028093E90271
:1044E0009093EA02A093EB02B093EC0285E591E091
:1044F0009093E6028093E50210924F0310924E03D0
:104500008AE08093500380914D038E7F80934D030A
:1045100080914D038D7F80934D0310924B03109239
:104520004A0388E080934C03809149038E7F8093F7
:104530004903809149038D7F80934903109247037B
:10454000109246038BE080934803809145038E7F51
:1045500080934503809145038D7F8093450310929E
:1045600009031092080340E850E050930B03409376
:104570000A0380E490E090930D0380930C03509322
:104580000F0340930E039093110380931003109236
:104590001B03109213031092120310921503109232
:1045A000140381E080931A033093190320931803B6
:1045B000309317032093160380931C0310921D035E
:1045C00010921F0310921E0327E631E03093070379
:1045D0002093060321EF32E0309321032093200340
:1045E00010922303109222031092250310922403A9
:1045F0009FEF9093290390932A0395E190932B03C7
:1046000097E190932C0396E190932D0390E590937E
:1046100043038093440380E18093F7028CE180930D
:10462000F60286E08093F50240E081E697E9E3E94F
:10463000FEEF542F537021E009F020E061E0640F99
:1046400030E0D901A359BE4F8A179B0738F0AF015C
:10465000421B530B840F951F462FEBCF4093F20262
:1046600021E0622F6150770BFB01EC5FF74FE49183
:10467000511103C0223009F4EF5FF0E031E0320F56
:104680008E179F0720F08E1B9F0B232FEACF2093BE
:10469000F3028F5F8093F4021092F8021092F902F5
:1046A0001092FA021092FB021092FC021092FD028C
:1046B0001092FE021092FF0282E0809300038FEFBF
:1046C00080930103109202031092030310920403DB
:1046D0001092050390E080E00E943531C82F8FEBE7
:1046E0008C0F833060F481E090E00E943531982F88
:1046F00091709093FE02869581708093FF028EEBFD
:104700008C0F823070F482E090E00E94353180930B
:104710000003C33431F483E090E00E94353180938C
:104720000103CF910895CF93DF93CDB7DEB76197A3
:104730000FB6F894DEBF0FBECDBF789484B582600B
:1047400084BD84B5816084BD85B5826085BD85B535
:10475000816085BD80916E00816080936E001092B3
:10476000810080918100826080938100809181002E
:1047700081608093810080918000816080938000BF
:10478000809191008260809391008091910081607E
:10479000809391008091900081608093900080913F
:1047A000C10084608093C1008091C10082608093C9
:1047B000C1008091C10081608093C1008091C300DD
:1047C00081608093C3008091C00082608093C000AC
:1047D0008091C20081608093C20080917A008460E1
:1047E00080937A0080917A00826080937A00809131
:1047F0007A00816080937A0080917A00806880934B
:104800007A0010923E0210920202109201028091F0
:10481000D70081608093D70080EA8093D80089B563
:10482000806189BD89B5826089BD09B400FEFDCF74
:1048300061E070E080E090E00E94EF068091D80097
:104840008F7C80618093D8008091E000807F80938E
:10485000E0008091E1008E7E8093E1008DE0809306
:10486000E200559A209A8FEF9FEF9093A2028093D7
:10487000A102EFE7F6E0E49190917B008E2F880F84
:10488000880F80729F7D892B80937B00E770E064A6
:10489000E0937C0080917A00806480937A0080911C
:1048A0007A0086FDFCCF8091780060917900762FA8
:1048B000682F072E000C880B990B61157105810577
:1048C000910511F00E94752E1092900210928F02A5
:1048D00010929202109291020E94291284EB94E0AD
:1048E000909307028093060285EB94E09093050273
:1048F000809304028091240390912503892BF9F081
:104900000E94F11920910C0330910D0380910A034C
:1049100090910B03B90160527109213231050CF0FD
:1049200076C077FF03C0B9016F517109759567951E
:104930008058910997FD019646EB56E070C0209192
:104940000C0330910D03C901079697FD0796B3E05C
:1049500095958795BA95E1F720910A0330910B035D
:10496000AC01429FC001439F900D529F900D1124B6
:104970000E941A339093250380932403892B09F016
:10498000BFCF0E94F11960E086E093E00E94080A20
:1049900088E60E9435040E94DA1285EE92E00E94B9
:1049A000DF1261E070E088E690E00E9402180E9449
:1049B000520487FF2EC24BE050E06EED76E0CE0150
:1049C00001960E947E2ECE010A960E94E2118C87EB
:1049D000E981E154E33108F0FCC10E2E000CFF0B1D
:1049E000EC50FB4D0C9400337228E926E92686280A
:1049F000E9267028E926E926E926DF26E926E926C0
:104A0000792884288228E926E926E92680287595D0
:104A100067958058910997FD019646EB56E095956C
:104A200087950E94EB1082E08093270380912203F8
:104A300090912303892B09F4CCC080910C039091B1
:104A40000D03809709F0C3C08CE380932603109276
:104A5000900210928F0210929202109291020E9484
:104A6000291284EB94E0909307028093060285EB71
:104A700094E0909305028093040280912D0387FDBA
:104A80001EC061E00E94990661E080912D030E94A2
:104A90006B0661E070E080E090E00E94EF0660E06D
:104AA00080912D030E946B066AE070E080E090E048
:104AB0000E94EF0661E080912D030E946B068091B9
:104AC000220390912303892B09F442C160913A0398
:104AD00070913B0380913C0390913D030E9416121C
:104AE00064E084EA96E00E94C61360910C03615072
:104AF00086E093E00E94691464E080EA96E00E94F8
:104B0000C6138091270360E1813009F064E186E0FB
:104B100093E00E94691464E08CE996E00E94C61359
:104B20008FE88093420380910A0390910B038038B1
:104B3000910509F026C180910C0390910D038034FA
:104B4000910509F02EC180912703813009F017C12A
:104B50008FE98093420312E16AED86E093E00E94C0
:104B60006914612F86E093E00E94691461E886E091
:104B700093E00E9469146091420386E093E00E94F2
:104B8000691469ED86E093E00E946914809127031F
:104B900062E2813009F061EF86E093E00E946914DF
:104BA00066E086E996E00E94C61380912203909108
:104BB0002303892B09F4F9C060913E0370913F03F0
:104BC00080914003909141030E941612DACE8DE34A
:104BD0003CCF61E080912B030E94990661E08091B7
:104BE0002C030E94990680912B03082E000C990B30
:104BF000FC01E65FF84FE491F0E0EE0FFF1FE8558F
:104C0000F94F259134913093330320933203FC0103
:104C1000E75DF84FE491E093380380912C03082E70
:104C2000000C990BFC01E65FF84FE491F0E0EE0F09
:104C3000FF1FE855F94FA591B491B0933503A093A8
:104C40003403FC01E75DF84FE491E09339038C9164
:104C5000E82BEC938091200390912103892B09F498
:104C600034C01FB7F89480910302811127C0EBE193
:104C7000F7E08491EAE3F7E09491E82FF0E0EE0F9B
:104C8000FF1FE857F94FA591B491EC91E92321F466
:104C900061E081E10E946B0661E081E10E9499067A
:104CA0008CB580618CBD8CB580648CBD61E08FE07B
:104CB0000E94990661E080E10E94990680910302BA
:104CC0008F5F809303021FBFD8CE61E080912903DC
:104CD0000E94990661E080912A030E9499068091C2
:104CE0002903082E000C990BFC01E65FF84FE491B4
:104CF000F0E0EE0FFF1FE855F94F25913491309306
:104D00002F0320932E03FC01E75DF84FE491E0931D
:104D1000360380912A03082E000C990BFC01E65FF4
:104D2000F84FE491F0E0EE0FFF1FE855F94FA59121
:104D3000B491B0933103A0933003FC01E75DF84FC9
:104D4000E491E09337038C91E095E823EC9395CEC2
:104D50008091200390912103892B31F080914303AE
:104D6000909144030E94040AE0913403F0913503CA
:104D7000908180913903809589238083B1CE8FEC17
:104D8000E8CE8036910569F480910C0390910D0373
:104D9000409739F480912703813029F480E1809392
:104DA000420312E0D9CE8FEAFACFE0913403F091BA
:104DB0003503808190913903892B8083E2CD8A81EC
:104DC000813609F489C18B818E3609F087C186E06E
:104DD0008D87CE0105960E94E2118E8748E050E053
:104DE00065ED76E0CE0101960E947E2ECE01019601
:104DF0000E94E2118F87CE0104960E94E211888BF7
:104E0000CE0107960E94E211898BCE010C960E947A
:104E1000A51662E08AE00E94990662E088E00E949E
:104E2000990662E08BE00E94990682E080931A0363
:104E300081E090E0909319038093180390931703F7
:104E40008093160385E090E0909313038093120300
:104E500084E190E090931503809314036AEC76E06C
:104E600086E093E00E94FB0C81E080931A0382E4C9
:104E700090E0909313038093120380E390E090936B
:104E80001503809314036FEB76E086E093E00E94B5
:104E9000FB0C8EE490E0909313038093120388E35D
:104EA00090E0909315038093140366EB76E086E020
:104EB00093E00E94FB0C0E94651560ED77E080E0B6
:104EC00090E00E94EF068091FF020E94C6140E94AB
:104ED000DB1810922E0210922D02542C55E0A52EB4
:104EE000B12C63E0262E312CCC24C394D12C8BE042
:104EF0000E9442064C01892BC9F480912B029091AB
:104F00002C02019799F48091290290912A0201962E
:104F1000833091050CF0FEC090932A028093290201
:104F200062E370E080E090E00E94EF0690922C0235
:104F300080922B020E9465158091D90080FFEFC0FE
:104F40008AE090E090930D0180930C018BE00E9429
:104F50004206892B19F48FEA0E94181580912702C6
:104F600090912802019660E177E20E94EC329093E2
:104F70002802809327028DE493E00E947F17882EF9
:104F80008823C9F080914D0380FB882480F880FF3E
:104F900012C0E0912F02F091300280819181823025
:104FA000910509F44DC108F03FC1009709F45FC1B4
:104FB000019709F44EC189E493E00E947F1788238A
:104FC00009F420C28091490380FB992490F880FF66
:104FD00019C2E0912F02F0913002808191818230DC
:104FE000910509F485C108F047C1009709F480C113
:104FF000019709F455C185E493E00E947F17882347
:1050000009F42AC28091450380FB442440F880FFC4
:1050100023C2E0912F02F091300280819181823091
:10502000910509F4FDC108F0EFC1009709F40FC222
:10503000019709F4FEC120912D0230912E022730F4
:10504000310584F580902F029090300281149104F4
:10505000A9F0D4018D919C9111972817390711F16E
:10506000892B29F412968D919C910E94B633C4012C
:105070000E94B6331092300210922F0280902D02BF
:1050800090902E02B2E08B16910409F4FAC108F058
:10509000E5C18114910409F414C2F1E08F16910462
:1050A00009F4E6C10E94DB18E0912F02F091300272
:1050B00080819181009709F4B7C2069710F450904F
:1050C000F9025110C7C24110C5C280E090E0892B9F
:1050D000F9F00E94000001CF81E07ACE87E078CE1F
:1050E00082E076CE8B81823711F484E071CE88E045
:1050F0006FCE8B81823711F483E06ACE85E068CE73
:1051000089E066CE8AE064CE8BE062CE8CE060CE31
:10511000542CEDCE10922A021092290201CF8091D8
:105120000C0190910D01181619062CF4019790931B
:105130000D0180930C018091270290912802843602
:1051400099410CF40BCF64EF71E080E090E00E9495
:10515000EF06109228021092270210922C02109251
:105160002B028EEA0E941815809164008160809362
:10517000640083B7817F846083BF83B7816083BF0E
:10518000E4E3F7E09491E5E1F7E0849120912602D1
:10519000292B2093260220912502292B20932502DA
:1051A000E3E0F7E02491E22FF0E0EE0FFF1FEB5E6B
:1051B000FD4F22E635E131832083E82FF0E0EE0F4A
:1051C000FF1FE651F94FA591B4918C918093140281
:1051D0004BE650E050931302409312028091680016
:1051E000816080936800E0911202F0911302808147
:1051F000982B9083889583B7816083BF889583B708
:105200008E7F83BF83B78E7F83BF8FB7F894E4E32D
:10521000F7E09491E5E1F7E094918FBF809164000D
:105220008E7F809364009ACE84309105D1F088F00F
:10523000059709F0C0CE828190E00196B1010DC0C2
:105240008091FE0291E089278093FE020E94D61988
:10525000B2CE828190E00196B5010E94EC32828349
:10526000AACE828190E0019667E070E0F6CFD092FE
:105270002E02C0922D029FCE8430910509F476C093
:10528000A0F1059709F0B7CE8281823089F18111B2
:10529000B0C00E94C6141092FF020E94D619ABCE75
:1052A0008281843029F410922E0210922D02A3CE16
:1052B000813029F430922E0220922D029CCE811151
:1052C00007C082E090E090932E0280932D0293CE4F
:1052D000823019F484E090E0F6CF833009F08BCE71
:1052E000B0922E02A0922D0286CE8281843029F4C3
:1052F000D0922E02C0922D027ECE3091F5022091E6
:10530000F602811118C0832F90E0019668E170E0E9
:105310000E94EC32382F3093F5022093F60210925F
:10532000F70281E08093F8028093F90282EF92E025
:105330000E94A51660CE813049F4822F90E001963C
:105340006CE370E00E94EC32282FE5CF823021F42C
:10535000332341F03150DFCF8330E9F6222321F0AF
:105360002150D9CF37E1D7CF2BE3D5CF82818630FB
:1053700009F4BECF2091F20230E02053384F509113
:10538000F3024091F402823029F42F5F3F4F205DF9
:10539000374008C0853069F4215031092F3CF7E0CF
:1053A0003F07A9F72093F2025093F3024093F402CF
:1053B000B8CF813039F4852F6CE00E94E03251E0A3
:1053C000590FE5CF843029F4513009F4E0C351502E
:1053D000DECF811107C0842F6FE10E94E03241E0EF
:1053E000490FD5CF833099F6413009F4D2C34150EB
:1053F000CECF813009F0FFCD0E94C61481E08093AA
:10540000FF024BCF982CF7CD84309105D1F088F076
:10541000059709F010CE82818150990BB1010DC022
:105420008091FE0291E089278093FE020E94D619A6
:1054300002CE82818150990BB5010E94EC328283A9
:10544000FACD82818150990B67E070E0F6CFD0925F
:105450002E02C0922D02EFCD492CEDCD24E0821614
:10546000910431F1D0F045E08416910409F01ACE90
:1054700083E090E00E941A33DC0111969C928E9298
:1054800014C082E090E00E941A33FC019182808275
:105490009093300280932F0205CE83E090E00E942B
:1054A0001A33DC0111963C922E9212961C92F0CF88
:1054B00083E090E00E941A33FC0191828082128284
:1054C000E7CF85E090E00E941A333C01FC01118295
:1054D00010821382128214828CE190E00E941A33AF
:1054E0004C0183E291E0D40111969C938E93139624
:1054F0001C921E92129715961C921E92149782E08F
:1055000016968C9316979EE017969C93179718966D
:105510001C9218972EE730E01A963C932E93199719
:1055200022E330E01C963C932E931B971D968C93A0
:105530001D971E969C931E971F961C921F9722E004
:1055400030E051963C932E93509753963C932E9374
:10555000529793E054969C93549755969C935597E5
:1055600056968C93569757968C93579759961C92AC
:1055700059975A961C925A975B961C920E94262E17
:1055800022E330E040E050E00E944B31F4017583AB
:105590006483268130E0318B208B2781269530E093
:1055A000C901860F971F938B828BC40140960E947E
:1055B000CF17D30113969C928E9212976091F502A9
:1055C0008091FE02811103C06D3008F06C50F30130
:1055D00082819381DC01ED91FC910190F081E02DBD
:1055E0004091F6020995F3018481809300030E94A3
:1055F000D6196091F5028091FE02811103C06D30D1
:1056000008F06C50D30112968D919C91DC01ED91C4
:10561000FC910190F081E02D4091F6020995709285
:10562000300260922F023ECD6091F5028091FE0221
:10563000811103C06D3008F06C5082819381DC01D0
:10564000ED91FC910280F381E02D4091F6020995E5
:10565000552453940E94F11980902F0290903002AB
:10566000F401808191818230910509F4BBC050F42E
:10567000009709F480C2019709F459C00E9465158A
:10568000452C23CD8430910509F49AC108F4EEC06D
:105690000597A1F78EE597E00E94361B9DE0692EE5
:1056A000712C412CB0921303A09212037092150337
:1056B00060921403F4018281841147C2109217038F
:1056C00010921603D0921903C0921803EE24E394AB
:1056D000F12C09E010E020E830E0A301415051092D
:1056E00070E060E086E093E00E940E0EF1E04F165D
:1056F00009F434C222E068E477E0421661F0809158
:10570000FF02811106C06BE577E086E093E00E941E
:10571000FB0C64E577E086E093E00E94FB0C439489
:105720003AE0630E711C43E04412BCCFA7CF80EE79
:1057300097E00E94361B2DE0622E712C412CB09216
:105740001303A09212037092150360921403D40104
:1057500012968C91841127C0109217031092160391
:10576000D0921903C0921803EE24E394F12C09E0BF
:1057700010E020E830E0A3014150510970E060E002
:1057800086E093E00E940E0EB2E06EEB77E04B16DF
:10579000E9F0B41588F0E1E067EC77E04E16B1F07F
:1057A00060ED77E013C0D0921903C0921803D09235
:1057B0001703C0921603E8CFF3E06FEA77E04F16C5
:1057C00029F024E06AEA77E04212EACF86E093E02B
:1057D0000E94FB0C43943AE0630E711C45E04412B6
:1057E000AECF4CCF8DE997E00E94361BD0921903C3
:1057F000C0921803D0921703C092160382E08093E0
:105800001A0388E290E0909313038093120387E1D8
:1058100090E090931503809314038091FE0268E951
:1058200077E0811102C063E977E086E093E00E94AF
:10583000FB0CB4E1EB2EF12C0BE310E024E130E0A3
:1058400045E450E06FE070E080E490E00E94E10EFB
:1058500088E2E82EF12C28E230E045E450E06DE2E9
:1058600070E080E490E00E94E10E08CF8AE897E0C3
:105870000E94361B82E080931A03D0921903C092D3
:105880001803D0921703C092160384E190E090931E
:1058900013038093120387E190E0909315038093A4
:1058A00014038091F6021F928F938091F5021F924C
:1058B0008F9380E897E09F938F931F9289E08F9357
:1058C00081E090E08C0F9D1F9F938F930E94872E05
:1058D000BE016F5F7F4F86E093E00E94DB1AD40128
:1058E00012962C910FB6F894DEBF0FBECDBF2230BA
:1058F00008F045C0F3E22F9FC00111248C01075E20
:105900001F4FAC014D5D5F4FA4E1EA2EF12C24E165
:1059100030E06FE070E04E960E94E10ED4011296E6
:105920008C91843009F043C0EE24E394F12C0AE01A
:1059300010E020E830E045E350E070E060E086E011
:1059400093E00E940E0E1092170310921603D0924D
:105950001903C092180381E080931A03B0921303D5
:10596000A092120386E390E09093150380931403B2
:105970006BE777E086E093E00E94FB0C7FCE24305B
:1059800068F62250330B43E2429FC001439F900DC3
:1059900011248C01075E1F4FAC014D5D5F4FF8E293
:1059A000EF2EF12C28E230E06DE270E0B4CFD0921F
:1059B0001903C0921803D0921703C0921603CBCFDD
:1059C00082E797E00E94361B82E080931A03D09210
:1059D0001903C0921803D0921703C092160384E1F2
:1059E00090E0909313038093120307E110E010936B
:1059F0001503009314034091F40250E070E060E05E
:105A00002AE086E093E00E94EA1A82E390E0909315
:105A10001303809312031093150300931403E09172
:105A2000F302E25069E677E0EB3038F4F0E0EE0F95
:105A3000FF1FE75DFE4F6081718186E093E00E9469
:105A4000FB0C8AE590E090931303809312038EE1A0
:105A500090E0909315038093140381E080931A03E0
:105A60004091F20250E04053584F052E000C660B57
:105A7000770B2AE086E093E00E94EA1AF401228183
:105A8000233008F041C0F3E22F9FC00111248C01A4
:105A9000075E1F4FAC014D5D5F4F64E1E62EF12CB8
:105AA00024E130E06FE070E04E960E94E10ED401F8
:105AB00012968C91863009F03FC0EE24E394F12CCD
:105AC0000AE010E020E830E045E350E070E060E0FC
:105AD00086E093E00E940E0E1092170310921603B8
